:100000000C942A000C945A0B0C9447000C94470053
:100010000C9447000C94840B0C9447000C94190327
:100020000C9447000C9447000C94B10A0C94880A75
:100030000C945E0A0C94DA0A0C9447000C94470066
:100040000C9447000C9447000C9447000C94470014
:100050000C94470011241FBECFE5D8E0DEBFCDBF12
:1000600010E0A0E6B0E0E4EEF7E102C005900D92EA
:10007000A038B107D9F726E0A0E8B0E001C01D9292
:10008000A23DB207E1F70E94430A0C94F00B0C94D6
:100090000000813001F130F08230B1F1833009F499
:1000A0004CC00895413059F42AB381E090E002C079
:1000B000880F991F6A95E2F7822B8ABB08952AB3AD
:1000C00081E090E002C0880F991F6A95E2F7809561
:1000D00082238ABB0895413059F427B381E090E030
:1000E00002C0880F991F6A95E2F7822B87BB08959B
:1000F00027B381E090E002C0880F991F6A95E2F76C
:100100008095822387BB0895413059F424B381E060
:1001100090E002C0880F991F6A95E2F7822B84BB9A
:10012000089524B381E090E002C0880F991F6A957A
:10013000E2F78095822384BB0895413059F421B3BE
:1001400081E090E002C0880F991F6A95E2F7822B48
:1001500081BB089521B381E090E002C0880F991F10
:100160006A95E2F78095822381BB0895813001F181
:1001700030F08230B1F1833009F44CC00895413041
:1001800059F42BB381E090E002C0880F991F6A9563
:10019000E2F7822B8BBB08952BB381E090E002C085
:1001A000880F991F6A95E2F7809582238BBB08958B
:1001B000413059F428B381E090E002C0880F991FC4
:1001C0006A95E2F7822B88BB089528B381E090E01E
:1001D00002C0880F991F6A95E2F78095822388BB39
:1001E0000895413059F425B381E090E002C0880FB2
:1001F000991F6A95E2F7822B85BB089525B381E0AC
:1002000090E002C0880F991F6A95E2F780958223DB
:1002100085BB0895413059F422B381E090E002C0DB
:10022000880F991F6A95E2F7822B82BB089522B34B
:1002300081E090E002C0880F991F6A95E2F78095EF
:10024000822382BB0895813089F028F08230C9F082
:10025000833011F108952BB381E090E002C0880F44
:10026000991F6A95E2F782278BBB089528B381E036
:1002700090E002C0880F991F6A95E2F7822788BB39
:10028000089525B381E090E002C0880F991F6A9518
:10029000E2F7822785BB089522B381E090E002C097
:1002A000880F991F6A95E2F7822782BB0895FC01A7
:1002B0000396928381832FEF3FEF348323839683CA
:1002C00085839087878310820895FC0111861086AC
:1002D0000895CF93DF93EB01488159814F3F2FEF72
:1002E000520721F4FC01A781B0850DC0DC011396F3
:1002F00001C0DF011296ED91FC91139720813181AD
:1003000042175307B0F71296ED91FC911397FB83B8
:10031000EA83D583C483BD83AC831396DC93CE93E9
:10032000129799878887FC0120812F5F2083DF91B6
:10033000CF910895CF93DF93FC01A085B185C28151
:10034000D381848195819D838C83C481D581828171
:1003500093819B838A8311968D919C911297E817C4
:10036000F90731F48481958112969C938E931197AD
:10037000118610868C9181508C93DF91CF910895D6
:100380001BBC8CE78ABD8BE08EBD89B7806189BFBD
:10039000089531E1FC013083319722E220833197C7
:1003A000A3E3A083319760833197708331971082E4
:1003B000319760E8608331971082319762E0608303
:1003C000319763E06083319764E06083319765E043
:1003D0006083319766E06083319767E0608331978F
:1003E00068E06083319769E06083319760E1608302
:1003F00031973083319732E13083319733E1308365
:10040000319734E13083319735E13083319736E1EC
:100410003083319737E13083319738E1308331973A
:1004200039E13083319730E23083319731E23083E4
:1004300031972083319723E220833197408331978E
:100440005083319726E22083319727E2208331972A
:1004500028E22083319729E22083319720E320830B
:10046000319721E32083869708950E94C001A091CF
:10047000C606B091C706CD91CDBFDD91DEBFFF911D
:10048000EF91DF91CF91BF91AF919F918F917F912C
:100490006F915F914F913F912F911F910F91FF901D
:1004A000EF90DF90CF90BF90AF909F908F907F9014
:1004B0006F905F904F903F902F901F900F900FBEC6
:1004C0000F90089581E008950F920FB6F8940F925F
:1004D0001F9211242F923F924F925F926F927F92C0
:1004E0008F929F92AF92BF92CF92DF92EF92FF9244
:1004F0000F931F932F933F934F935F936F937F932C
:100500008F939F93AF93BF93CF93DF93EF93FF931B
:10051000A091C606B091C7060DB60D920EB60D920B
:100520000E94EB08A091C606B091C706CD91CDBF41
:10053000DD91DEBFFF91EF91DF91CF91BF91AF9140
:100540009F918F917F916F915F914F913F912F91EB
:100550001F910F91FF90EF90DF90CF90BF90AF90E1
:100560009F908F907F906F905F904F903F902F90D3
:100570001F900F900FBE0F9008950F920FB6F89432
:100580000F921F9211242F923F924F925F926F927F
:100590007F928F929F92AF92BF92CF92DF92EF9213
:1005A000FF920F931F932F933F934F935F936F93FC
:1005B0007F938F939F93AF93BF93CF93DF93EF93EB
:1005C000FF93A091C606B091C7060DB60D920EB668
:1005D0000D920E94E20681110E94EB08A091C606CE
:1005E000B091C706CD91CDBFDD91DEBFFF91EF91F8
:1005F000DF91CF91BF91AF919F918F917F916F913B
:100600005F914F913F912F911F910F91FF90EF902C
:10061000DF90CF90BF90AF909F908F907F906F9022
:100620005F904F903F902F901F900F900FBE0F90B4
:1006300008950E94BD021895AEE8B0E0EAE8F0E047
:10064000B183A08313821282E6E6F6E0F09389007C
:10065000E0938800138212821182108288ED95E067
:1006600013969C938E931297ED93FC939093850031
:100670008093840090938700809386000895CF93A1
:10068000DF93EC01AAE8B0E001C0DF01ED91FC913D
:100690001197EC17FD07C8F312968D919C91139753
:1006A0009D01280F391FC217D30749F42A813B81C6
:1006B000820F931F13969C938E931297ED018A815C
:1006C0009B819E01280F391FE217F307C1F4209187
:1006D000880030918900E217F30771F0228133819D
:1006E000820F931F9B838A83ED91FC9111978081E8
:1006F00091819983888305C03983288302C0F98357
:10070000E883CA17DB0711F0CD93DC93DF91CF911B
:1007100008950F931F93CF93DF93EC01892B41F042
:10072000CC3F8FEFD80710F4249602C0C0E0D0E091
:100730000E94DC068091880090918900892B11F439
:100740000E941C03DD230CF46CC0209709F46CC0DC
:1007500020918600309187002C173D0708F467C070
:10076000E0918A00F0918B006AE870E002C0BF015E
:10077000FC01828193818C179D0720F480819181F7
:100780000097A9F78091880090918900E817F907F0
:1007900009F450C0DB010D911C9111970C5F1F4FA4
:1007A000808191818D939C93828193818C1B9D0B81
:1007B0008930910598F0AF014C0F5D1FDA01139657
:1007C0009C938E931297D383C283DB018D919C916E
:1007D000DA018D939C93DB014D935C9342815381AD
:1007E000C901841B950B909387008093860020910C
:1007F0008400309185008217930720F49093850040
:1008000080938400506853834283118210828091C8
:1008100082009091830001969093830080938200E0
:100820000BC000E010E008C000E010E005C000E0F0
:1008300010E002C000E010E00E94FC07C801DF9158
:10084000CF911F910F9108950F931F93CF93DF9333
:10085000009749F1EC0124972A813B8133231CF551
:1008600048815981452BF9F43F773B832A830E94C5
:10087000DC068A819B812091860030918700820F5F
:10088000931F9093870080938600CE010E943F03C0
:1008900080918000909181000196909381008093D7
:1008A00080000E94FC07DF91CF911F910F91089566
:1008B000E0918E06F0918F068081811107C08FEF45
:1008C0009FEF90936E0680936D060895E0918E06DB
:1008D000F0918F060580F681E02D808191819093C3
:1008E0006E0680936D060895CF93DF93EC018F8998
:1008F000988D0E942404CE010E942404DF91CF91A0
:1009000008958F929F92AF92BF92CF92DF92EF9213
:10091000FF920F93CF93DF935C014901F601C789E2
:10092000D08D50E041505109C40FD51F611571059C
:1009300089F415C0822F90E0FB01E80FF91F308188
:10094000D601A80FB91F59963C938081882329F0BE
:100950002F5F01C020E0283068F3F60110A20430B8
:1009600008F003E0F601068B01A3C60102960E947F
:100970006501C6010C960E946501F601D186C0860C
:1009800084E090E0801B910995878487D38AC28A8E
:10099000A401B501CE010E94C901F60191838083B3
:1009A000E114F10419F0F701D182C082DF91CF91F7
:1009B0000F91FF90EF90DF90CF90BF90AF909F90FE
:1009C0008F9008954F925F926F927F928F929F9235
:1009D000AF92BF92CF92DF92EF92FF920F931F934D
:1009E000CF93DF932C014B01142F3901842F90E01A
:1009F0000E9489036C01892B99F088E290E00E94A3
:100A00008903EC01892B41F088E2FE0111928A955D
:100A1000E9F7D88ECF8A06C0C6010E94240402C01E
:100A2000C0E0D0E0209749F0A12CB12C6E019301D9
:100A3000412FB401C2010E948104CE01DF91CF9108
:100A40001F910F91FF90EF90DF90CF90BF90AF90EC
:100A50009F908F907F906F905F904F900895CF936D
:100A6000C0E010C08C2F90E09C01220F331F220F9A
:100A7000331F220F331F820F931F8E55994F0E94F1
:100A80005701CF5FC43070F389E996E00E945701A7
:100A900080E996E00E94570183E896E00E945701A2
:100AA0008AE796E00E94570189E996E090938F06C5
:100AB00080938E0680E996E090938D0680938C0655
:100AC000CF910895CF93DF93EC010FB6F8940F9276
:100AD000809178068F5F809378068091C60690910A
:100AE000C706892B59F4D093C706C093C6068091D8
:100AF0007806813099F40E942F0510C08091740609
:100B000081110CC0E091C606F091C70696898E89C6
:100B1000891720F0D093C706C093C60680916F0650
:100B20008F5F80936F068E8990917506981710F4E9
:100B30008093750690E0FC01EE0FFF1FEE0FFF1F84
:100B4000EE0FFF1F8E0F9F1FFC01EE55F94F018026
:100B5000F281E02DFD83EC83848195819F838E83D8
:100B6000A481B581CE01029613969C938E93129721
:100B700095838483EE89F0E0CF01880F991F880F59
:100B8000991F880F991FE80FF91FEE55F94FFB8742
:100B9000EA8780818F5F80830F900FBE80917406FB
:100BA000882351F0E091C606F091C70696898E8998
:100BB000981710F40E946402DF91CF910895CF93AB
:100BC000DF931CC00FB6F8940F92E0917F06F0916E
:100BD0008006C681D781CE0102960E949A0180913B
:100BE00078068150809378068091790681508093B1
:100BF00079060F900FBECE010E9474048091790691
:100C00008111E0CFDF91CF910895CF92DF92EF92E3
:100C1000FF920F931F93CF93DF93EC010091760621
:100C200010917706E0908E06F0908F06C0908C06AB
:100C3000D0908D068091C6069091C70602960E94BC
:100C40009A01C00FD11FE091C606F091C706D38369
:100C5000C283C017D10750F46091C6067091C706D1
:100C60006E5F7F4FC6010E94690114C06091C60685
:100C70007091C7066E5F7F4FC7010E946901809126
:100C80006D0690916E06C817D90720F4D0936E06B2
:100C9000C0936D06DF91CF911F910F91FF90EF9060
:100CA000DF90CF9008950E94DF058091A2068230E8
:100CB00010F00E9464020E942E0AF5CFEF92FF927C
:100CC0000F930E94E204009721F00E94620581E0E8
:100CD00001C08FEF0F91FF90EF900895EF92FF9278
:100CE0000F931F93CF93DF93CDB7DEB728970FB63F
:100CF000F894DEBF0FBECDBFFE01319688E0DF0164
:100D00001D928A95E9F720E010C0822F90E0FC0147
:100D1000EF59FF4F3081E1E0F0E0EC0FFD1FE80FED
:100D2000F91F3083332319F02F5F273070F3E1E090
:100D3000F0E0EC0FFD1FE20FF11D108210E081E0EA
:100D400015C0812F880F990B9C012559394F7901C6
:100D500000E020E030E045E5BE016F5F7F4F83E5B6
:100D600096E00E945E06813019F41F5F11164CF761
:100D700028960FB6F894DEBF0FBECDBFDF91CF919E
:100D80001F910F91FF90EF9008950E946E068130A1
:100D900081F4F8948FEF9FEF90936E0680936D0629
:100DA00081E08093740610927706109276060E9476
:100DB000350280916000089580916A068F5F80936C
:100DC0006A0608950F931F93CF93DF9380916A066D
:100DD000811101C1C0917606D09177068E010F5F17
:100DE0001F4F109377060093760601151105B9F48D
:100DF00080918E0690918F0620918C0630918D0601
:100E000030938F0620938E0690938D0680938C06E8
:100E1000809170068F5F809370060E9458048091C5
:100E20006D0690916E060817190720F480E0B8C08F
:100E300081E001C080E0E0918E06F0918F06908104
:100E4000911107C02FEF3FEF30936E0620936D0690
:100E5000A7C0E0918E06F0918F060580F681E02D07
:100E60000680F781E02D228133810217130728F4D1
:100E700030936E0620936D0693C0A285B3852481BE
:100E8000358146815781E9015D834C832681378115
:100E900044815581E9015B834A8311962D913C91F0
:100EA0001297AF014E5F5F4F2417350731F426814B
:100EB000378112963C932E931197138612869C913C
:100EC00091509C93A489B589109719F1268537858F
:100ED00060897189E9017D836C8320893189668508
:100EE0007785E9017B836A8311966D917C911297D6
:100EF0009F01245F3F4F6217730731F420893189C6
:100F000012963C932E931197158A148A9C919150B6
:100F10009C93268990917506921710F4209375067C
:100F200030E0D901AA0FBB1FAA0FBB1FAA0FBB1F1E
:100F30002A0F3B1FD901AE55B94F11960D90BC91A8
:100F4000A02DB583A48314962D913C9115973783DA
:100F5000268314962D913C911597E9015B834A8372
:100F600015965C934E931497A689B0E09D01220FCD
:100F7000331F220F331F220F331FA20FB31FAE5593
:100F8000B94FB387A2879C919F5F9C932689E0917C
:100F9000C606F091C7069689921708F449CF4BCF41
:100FA000E091C606F091C706268930E0F901EE0F00
:100FB000FF1FEE0FFF1FEE0FFF1F2E0F3F1FF90148
:100FC000EE55F94F9081923008F081E090917106D2
:100FD00091110CC00CC0809172069091730601961D
:100FE000909373068093720680E001C081E0DF91E8
:100FF000CF911F910F910895CF93DF930FB6F8947F
:101000000F9280916A06815080936A0680916A06E9
:101010008111C3C080917806811196C0C1C0E09152
:101020008806F09189060680F781E02DA489B589AC
:10103000C685D785808991899D838C83C089D18914
:10104000868597859B838A8311962D913C91129773
:10105000CF010C962817390731F4808991891296AF
:101060009C938E931197158A148A8C9181508C933E
:10107000A285B385C481D581868197819D838C8328
:10108000C681D781848195819B838A8311968D91B6
:101090009C9112979F012E5F3F4F8217930731F467
:1010A0008681978112969C938E9311971386128650
:1010B0008C9181508C93868990917506981710F4C5
:1010C0008093750690E0DC01AA0FBB1FAA0FBB1F1F
:1010D000AA0FBB1F8A0F9B1FDC01AE55B94F11969B
:1010E0000D90BC91A02DB583A48314968D919C91F5
:1010F0001597978386831496CD91DC9115973B8342
:101100002A8315963C932E931497A689B0E0CD01BF
:10111000880F991F880F991F880F991FA80FB91F53
:10112000AE55B94FB387A2878C918F5F8C93968908
:10113000A091C606B091C70656968C91891730F4D7
:1011400081E08093710602C0E0E0F0E080918306C8
:10115000811165CFEF2B11F00E945804C0917206E7
:10116000D0917306209769F00E94E206882319F057
:1011700081E0809371062197B9F71092730610925F
:10118000720680917106882351F08091C606909175
:10119000C7060E94640281E003C080E001C080E0D5
:1011A0000F900FBEDF91CF910895CF93DF93EC01A5
:1011B000892B49F00E94DC0660E0CE010E94050602
:1011C0000E94FC0701C080E0811102C00E946402FD
:1011D000DF91CF91089580916A06882321F081E004
:1011E000809371060895109271062091750601C0D2
:1011F0002150822F90E0FC01EE0FFF1FEE0FFF1F2A
:10120000EE0FFF1FE80FF91FEE55F94F3081332322
:1012100079F3AC01440F551F440F551F440F551F60
:10122000480F591FFA01EE55F94FA181B28112966C
:101230006D917C911397728361834B55594F64175D
:10124000750779F4FC01EE0FFF1FEE0FFF1FEE0F85
:10125000FF1FE80FF91FEE55F94F45815681528364
:101260004183FC01EE0FFF1FEE0FFF1FEE0FFF1F6C
:101270008E0F9F1FFC01EE55F94F0180F281E02D8A
:10128000868197819093C7068093C6062093750642
:101290008091C6069091C70608958BB382608BBB80
:1012A00000008BB38D7F8BBB81E28A95F1F7000044
:1012B000089580FF04C09BB394609BBB03C09BB3A5
:1012C0009B7F9BBB81FF04C09BB398609BBB03C00B
:1012D0009BB3977F9BBB82FF04C09BB390619BBB7A
:1012E00003C09BB39F7E9BBB83FF04C08BB3806214
:1012F0008BBB03C08BB38F7D8BBB0E944D090895C0
:10130000CF93C82F8BB38E7F8BBB8C2F82958F7022
:101310000E9459098C2F8F700E94590983EF91E028
:101320000197F1F700C00000CF910895CF93C82F27
:101330008BB381608BBB8C2F82958F700E94590973
:101340008C2F8F700E94590981E28A95F1F7000075
:10135000CF910895CF93DF93EC0103C021960E94B3
:10136000960988818111FACFDF91CF91089581117B
:1013700080E4860F80680E94800908958AB38F6395
:101380008ABB87E893E10197F1F700C0000083E092
:101390000E94590981EE94E00197F1F700C0000026
:1013A00083E00E94590992E49A95F1F700C083E026
:1013B0000E94590982E48A95F1F700C082E00E94F8
:1013C000590988E20E9480098CE00E94800981E02E
:1013D0000E94800986E00E9480090895CF93DF93E0
:1013E000CDB7DEB760970FB6F894DEBF0FBECDBFA6
:1013F0000E94290B8C0160E080E00E94B70986E61C
:1014000090E00E94AA094AE0BE016F5F7F4FC801C9
:101410000E94BB0BCE0101960E94AA098DE690E0C6
:101420000E94AA090531110530F041E061E082E037
:101430000E94B60005C040E061E082E00E94B60074
:1014400084EF91E00E94D508D3CF60E082E00E9453
:10145000230184EF91E00E94D508F7CF08950E9400
:10146000BE090E94160B41E060E082E00E94490044
:1014700041E061E082E00E94490040E061E082E0FA
:101480000E94B60008950E942F0AE12CF12C02E080
:1014900020E030E040E866E770E08EEE99E00E94E0
:1014A0005E0601E020E030E040E86CE770E085E2B5
:1014B0009AE00E945E060E94C506FFCF1F920F921F
:1014C0000FB60F9211242F933F934F935F936F9317
:1014D0007F938F939F93AF93BF93EF93FF93E0918D
:1014E000C806F091C906309711F08FB10995FF91A8
:1014F000EF91BF91AF919F918F917F916F915F918C
:101500004F913F912F910F900FBE0F901F90189504
:101510001F920F920FB60F9211242F933F934F9368
:101520005F936F937F938F939F93AF93BF93EF934B
:10153000FF93E091CA06F091CB06309709F0099528
:10154000FF91EF91BF91AF919F918F917F916F919B
:101550005F914F913F912F910F900FBE0F901F9071
:1015600018951F920F920FB60F9211242F933F934D
:101570004F935F936F937F938F939F93AF93BF939B
:10158000EF93FF93E091CA06F091CB06309709F0F4
:101590000995FF91EF91BF91AF919F918F917F91AD
:1015A0006F915F914F913F912F910F900FBE0F90D0
:1015B0001F9018951F920F920FB60F9211242F9320
:1015C0003F934F935F936F937F938F939F93AF93CB
:1015D000BF93EF93FF93E091CC06F091CD06309747
:1015E00011F08CB10995FF91EF91BF91AF919F914F
:1015F0008F917F916F915F914F913F912F910F90BC
:101600000FBE0F901F90189584E085BD14BC89B75C
:10161000806489BF089588B3816088BB85E38A951B
:10162000F1F7000088B38E7F88BB089587B381608F
:1016300087BB88B38E7F88BB81B38B7F81BB85B727
:10164000836085BF8BB780648BBF0E94040B789446
:1016500008950E940B0B2FEF81EE94E02150804003
:101660009040E1F700C00000F8946091CF06862F0B
:1016700090E0A0E0B0E0BA2FA92F982F8827209102
:10168000D0063091D106820F931FA11DB11D789411
:10169000BC01CD01660F771F881F991F660F771F4A
:1016A000881F991F2AE330E040E050E00E94990B28
:1016B000C90108951F920F920FB60F9211248F93B4
:1016C0009F938091CE0681110DC014BC1092CF065D
:1016D00081E08093CE0685B78D7F85BF85B7816019
:1016E00085BF0BC084B590E09093D1068093D0065F
:1016F0001092CE0685B7836085BF9F918F910F9022
:101700000FBE0F901F9018951F920F920FB60F9259
:1017100011248F938091CE06813029F48091CF06D9
:101720008F5F8093CF068F910F900FBE0F901F9009
:101730001895A1E21A2EAA1BBB1BFD010DC0AA1F02
:10174000BB1FEE1FFF1FA217B307E407F50720F02A
:10175000A21BB30BE40BF50B661F771F881F991FA5
:101760001A9469F760957095809590959B01AC01EE
:10177000BD01CF010895BB274A3031F4992322F4EB
:10178000BDE2909581959F4F0C94C70BBB27FB0141
:101790005527AA27880F991FAA1FA41710F0A41B6A
:1017A00083955051B9F7A05DAA3308F0A95DA193C4
:1017B000009779F7B111B1931192CB010C94E00B22
:1017C000DC01FC01672F71917723E1F7329704C0A8
:1017D0007C916D9370836291AE17BF07C8F3089533
:0417E000F894FFCFAB
:1017E4000349444C4500446973743A200020636DF6
:1017F400202020202000554C545241004C454400E8
:00000001FF
